:020000040800F2
:1000000080260020C57B0008390400083B04000856
:100010005B0400085F04000863040008000000009F
:10002000000000000000000000000000670400085D
:1000300069040008000000006B0400086D0400085B
:10004000DF7B0008DF7B0008DF7B0008DF7B000828
:10005000DF7B0008DF7B0008DF7B0008DF7B000818
:10006000DF7B0008DF7B0008DF7B0008DF7B000808
:10007000DF7B0008DF7B0008DF7B0008DF7B0008F8
:10008000DF7B0008DF7B0008DF7B0008DF7B0008E8
:10009000DF7B0008DF7B0008DF7B0008DF7B0008D8
:1000A000DF7B0008DF7B0008DF7B0008DF7B0008C8
:1000B000DF7B0008DF7B0008DF7B0008DF7B0008B8
:1000C000DF7B0008DF7B0008DF7B0008DF7B0008A8
:1000D000DF7B0008DF7B0008DF7B0008DF7B000898
:1000E000DF7B0008DF7B0008DF7B0008DF7B000888
:1000F000DF7B0008DF7B0008DF7B0008DF7B000878
:10010000DF7B0008B7790008DF7B0008DF7B000891
:10011000DF7B0008DF7B0008DF7B0008DF7B000857
:10012000DF7B0008DF7B0008DF7B0008DF7B000847
:1001300000F002F800F05CF80AA090E8000C82449D
:100140008344AAF10107DA4501D100F051F8AFF27A
:10015000090EBAE80F0013F0010F18BFFB1A43F0A5
:1001600001031847F0920000109300000A444FF07A
:10017000000C10F8013B13F0070408BF10F8014B06
:100180001D1108BF10F8015B641E05D010F8016B4B
:10019000641E01F8016BF9D113F0080F1EBF10F8AF
:1001A000014BAD1C0C1B09D16D1E58BF01F801CBD2
:1001B000FAD505E014F8016B01F8016B6D1EF9D555
:1001C0009142D6D37047000000230024002500266A
:1001D000103A28BF78C1FBD8520728BF30C148BFAA
:1001E0000B6070471FB508F09EFE1FBD10B510BD17
:1001F00007F0E7FE1146FFF7F5FF00F0ABF807F058
:1002000005FF03B4FFF7F2FF03BC07F00FFF000088
:1002100030BF72B662B680F30888704710B56422AA
:100220005D495E4805F010FF10BD10B540F2FF10AB
:1002300005F0A1FE10BD30B59BB0002407220221BD
:10024000062001F021FA5649002001F047FB554AEB
:1002500055A1012001F088FEAFF23F0254A1022017
:1002600001F082FEAFF23D0253A1032001F07CFEBB
:100270004A4B642252A1042001F036FF01F0AEF98E
:1002800004460CB15048047005F0E7FC05460346EF
:100290004D480278CDE900234CA30122082100201B
:1002A00002F0ACF964223C4902A805F0A7FE02ABBB
:1002B00000934BA301220021084602F09FF91BB0D6
:1002C00030BD10B505F03BFA4649002003F05EFD55
:1002D0004549087010BD10B505F031FA012243A15F
:1002E000454803F06BFD40490870444B5022444997
:1002F000414803F02DFE3C4908703F4804F081F866
:100300003949087010BD1CB507220221062001F0F2
:10031000BBF9AFF251023BA1002001F025FEAFF284
:1003200049023BA1012001F01FFE2F4803783B4802
:100330000278CDE900233AA301220821002002F02F
:100340005DF92F4B009326A301220021084602F0FD
:1003500055F91CBD002400F009FB05F0CFF905F0AC
:1003600074FD05F01BFC334800F070FB06F033FD14
:1003700018B106F030FD2949087005F0E0F909E0F0
:1003800005F01DFC0446204601F022F901F029F990
:1003900000F070FBF4E700009CFF1F001600002037
:1003A000880000203F570008426C696E6B00000017
:1003B0005772697465000000457261736500000042
:1003C0004564697400000000940000206B65793D6D
:1003D00025582C7377697463683D25580000000028
:1003E00025730000FC0100209500002074657374E3
:1003F0002E74787400000000300400209800002063
:1004000088080020312E665F6D6F756E74000000E5
:10041000322E665F6F70656E00000000A200002043
:100420005374617475733D25642C7265733D256446
:10043000000000007C00002070470DE00CA30122AA
:100440000821002000F036FE0EA3012200210846FC
:1004500000F030FE00F00EFBF0E700BFFEE700BF4B
:10046000FEE700BFFEE77047704770477047000027
:100470005B4572726F723A486172644661756C7462
:10048000215D0000706C6561736520707265737327
:10049000207265736574210000210020674A12688C
:1004A00042F48032654B1A6000BF644A126802F45D
:1004B0000030491C10B9B1F5A06FF6D15F4A12683F
:1004C00012F4003F01D0012000E00020012842D1B9
:1004D0005B4A126842F01002594B1A601A461268C1
:1004E00022F003021A601A46126842F002021A60F1
:1004F000524A5268514B5A601A4652685A601A461C
:10050000526842F480625A601A46526822F47C12A1
:100510005A601A46526842F4E8125A601A46126843
:1005200042F080721A6000BF444A126812F0007FE5
:10053000FAD0424A526822F00302404B5A601A46EF
:10054000526842F002025A6000BF3C4A526802F010
:100550000C02082AF9D1704710B5FFF79DFF10BDB6
:1005600010B53648006840F001003449086008467C
:1005700040683449084031494860084600683249BB
:1005800008402E4908600846006820F48020086072
:100590000846406820F4FE0048604FF41F00886061
:1005A000FFF7DAFF4FF000602849086010BD10B572
:1005B000002100200022214B5B6803F00C0121B1D7
:1005C000042906D0082928D107E0214B214C2360BB
:1005D00027E01F4B1F4C236023E0184B5B6803F49C
:1005E0007010164B5B6803F48032022303EB9040DB
:1005F00022B9194B4343174C23600DE00F4B5B6846
:1006000013F4003F04D0144B4343124C236003E027
:100610000F4B43430F4C236003E00D4B0D4C236005
:1006200000BF00BF054B5B68C3F303130B4CE15CD9
:10063000084B1B68CB40074C236010BD00100240E4
:10064000002002400000FFF8FFFFF6FE08ED00E08A
:1006500000127A00A400002000093D00A80000203C
:10066000B04A0A400243B04B1A6070470146072364
:1006700023EA01021202AD4B18684FF6FF0300EAAD
:100680000300AB4B40EA030040EA02004FF0E023D6
:10069000C3F80C0D70472DE9F04780468946144693
:1006A0001D462046E11704EB91714FEAA10AE117BC
:1006B00004EB91718910A4EB8101CFB2042000EB0F
:1006C000C700C7B22846FFF7D1FFC5F1040008FAFA
:1006D00000F60F20284100EA0900064306F00F0645
:1006E000202C0CDA934801684FF0010000FA04F066
:1006F00041EA00014FF0E020C0F800110DE08E4803
:100700000068A4F120014FF0010202FA01F240EA70
:1007100002004FF0E021C1F80401884810F80A00F7
:1007200006FA07F10843C1B2844800F80A10BDE890
:10073000F08770B504460B46CE1701EB9676B010E5
:10074000CE1701EB9676B610A1EB8606B606350EEF
:100750007B4B9B6943F00103794EB3614FEAB6339B
:1007600053F820300F26AE40B343764E46F8203083
:10077000334653F8203004FA05F63343714E46F8F9
:100780002030714B1E684FF0010303FA01F346EA73
:1007900003066E4BC3F8006412F0010F0AD06C4BD5
:1007A0001B684FF0010606FA01F643EA0603674E9E
:1007B000C6F80C3412F0020F0AD0664B1B684FF0DB
:1007C000010606FA01F643EA0603604EC6F808344D
:1007D00070BD00B500205A490861C8601420486106
:1007E00000208861C8610846006840F00100086088
:1007F0000846406858490840514948600846006822
:10080000564908404E4908600846006820F4802098
:1008100008600846406820F4FE00486000208860B8
:1008200000214FF00060FFF71BFF00BD10B54C48E2
:10083000006840F004004FF0E021C1F8100D40487E
:10084000C06940F080503E49C8614648406840F465
:100850008070444948600846006840F00400086021
:100860000846006840F002000860FFF7D1FC10BDA8
:100870002F48001D2D490860704701464906304A3F
:10088000926942F001022E4B9A61304A526822F07E
:10089000E0622E4B5A601A4652680A435A6070470B
:1008A00030B504460025FFF794FF2548006840F462
:1008B00080302349086000BF21480068400CFBD00D
:1008C0004FF480601E494860A01EC4B208464068CC
:1008D00040EA844048600846406840F48030486000
:1008E0002148006840F032001F4908601448006841
:1008F00040F080701249086000BF11480068400E47
:10090000FBD00F48406840F002000D49486005E008
:100910000B484068C0F3870505F00305022DF7D1A9
:1009200030BD000080FFFF1F08ED00E00CED00E08F
:100930000000FA0500E100E004E100E000E400E06E
:100940000010024008000140000401400000014086
:100950000C040140080401400000FFF8FFFFF6FE10
:1009600010ED00E0007000400020024010B56FF074
:10097000040007F004F92A4800682A49B0FBF1F0A6
:1009800029490870084600784FF47A71484327498E
:10099000088010BD0146244A12784A434FF0E023F4
:1009A0005A6100229A611A46126942F001021A61E4
:1009B00000BF4FF0E022106910F0010F02D010F4D8
:1009C000803FF6D04FF0E022126922F001024FF092
:1009D000E0231A6100229A6170470146134A128887
:1009E0004A434FF0E0235A6100229A611A46126985
:1009F00042F001021A6100BF4FF0E022106910F0CE
:100A0000010F02D010F4803FF6D04FF0E0221269BF
:100A100022F001024FF0E0231A6100229A61704730
:100A2000A400002000127A00B8000020BA000020C4
:100A300010B504F062FF10BD10B50446204604F066
:100A4000CBFF10BD10B504F03CFF10BD10B504463F
:100A5000FFF7EEFF4FF480611F4807F092F9204640
:100A600000F0AFFD10BD10B54FF480611A4807F0DB
:100A700088F910BD10B51848FFF7DEFFFFF7F3FF48
:100A800010BDF0B50B4614460025802801D2402B3E
:100A900000D3F0BD0726A6EBD306F1B203F00702A0
:100AA000C2F107070126BE40F5B24CB10A4E06EB73
:100AB000C006765C2E43084F07EBC0077E5408E063
:100AC000054E06EBC006765CAE43034F07EBC0074E
:100AD0007E5400BFDDE70000EC08002029B10129A9
:100AE00002D0FE2907D101E000BF00BFFF4B0CCBB5
:100AF000C0E900237047FD4B0CCBC0E9002300BFC9
:100B0000F8E72DE9FE4F0446884615461E460120AB
:100B1000029004F0FF0B31466846FFF7DFFF9DF8B7
:100B2000000030400290A5F12000C5B29DF80200FF
:100B3000401E47B233E09DF80210019805FB01000A
:100B400010F807904FF0000A23E019F0800F05D04D
:100B500041462046029AFFF794FF09E0029808B93F
:100B6000012000E00020C2B241462046FFF789FF85
:100B70004FEA49604FEA1069641CA4EB0B00082897
:100B800003D15C4608F1010806E00AF1010000F01B
:100B9000FF0ABAF1080FD8DB00BF781E47B2002F5A
:100BA000C9DABDE8FE8F2DE9FC41064688461446A9
:100BB0001F46002539466846FFF790FF0AE0625D50
:100BC0003B4641463046FFF79CFF9DF80100064436
:100BD000681CC5B2605D0028F1D1BDE8FC812DE93B
:100BE000FF4F9FB01D461F9800F0FF0800201C908B
:100BF00003201B9001200C90219908A8FFF76EFF9D
:100C00000020129010904DE215F8011B4CB204B96F
:100C10004CE2252C0BD0E2B24046DDE92013FFF771
:100C200070FF9DF82100404400F0FF0835E20020ED
:100C30008146834600BF199015F8011B4CB2302C39
:100C400005D14FF0010915F8011B4CB20EE02D2C17
:100C500005D14FF0020915F8011B4CB206E02E2C0D
:100C600004D101201C9015F8011B4CB218E01C980F
:100C700001280BD1199800EB800004EB40003038BC
:100C8000C0B2199015F8011B4CB209E00BEB8B00B8
:100C900004EB4000303800F0FF0B15F8011B4CB29C
:100CA000302C01DB392CE2DD1C98012807D1199882
:100CB000072801DD072000E01998C0B21B906C2CBA
:100CC00001D04C2C04D149F0040915F8011B4CB299
:100CD00004B9EBE12746612C04DB7A2C02DCA7F196
:100CE000200047B24F2F78D008DC422F76D0432F18
:100CF00064D0442F73D0462F72D173E0532F04D0A9
:100D0000552F6ED0582F6BD124E12C98006813908A
:100D10002C98001D2C904FF0000A03E00AF101000E
:100D200000F0FF0A139810F80A000028F6D1CDF859
:100D30003CA0119019F0020F15D10EE02022404680
:100D4000DDE92013FFF7DDFE1198401C00B2119081
:100D50009DF82100404400F0FF085046411C01F07E
:100D6000FF0A5845EADB4046DDE92013139AFFF7F6
:100D70001AFF9DF821100F9801FB008000F0FF087A
:100D80000F991198084400B211900EE020224046BD
:100D9000DDE92013FFF7B5FE1198401C00B2119059
:100DA0009DF82100404400F0FF085046411C01F02E
:100DB000FF0A5845EADB119810906EE12C9802C8A2
:100DC000CAB22C904046DDE92013FFF79AFE9DF849
:100DD0002100404400F0FF085FE1B4E0B0E0B5E07E
:100DE000BBE0B4E02C98C01D20F0070001462C9019
:100DF000006849682C9A08322C92CDE90A01002239
:100E00001346DDE90A0107F0DDFB0BD21B9840F029
:100E100008001B900022364BDDE90A0107F00EFCAA
:100E2000CDE90A01DDE90A0107F044FB00B20E90AA
:100E300001200C901B9800F007001A9009E00C9814
:100E400000EB8000400000B20C901A98401EC0B227
:100E50001A901A98401EF2D50E9807F088FBCDE93B
:100E60000001DDE90A2307F01DFDCDE904010C981E
:100E700007F07DFBCDE90201DDE9042307F0DEFB8D
:100E8000CDE9060107F016FB00B20D9000261B9875
:100E900000F007001A901CE00D98A0B10A210D98EF
:100EA00090FBF1F201FB120047B20D9890FBF1F0BC
:100EB00000B20D9007F1300042B23046711CCEB244
:100EC00014A90A5405E030223046711CCEB214A990
:100ED0000A541A98411EC9B21A910028DCD12E2258
:100EE0003046711CCEB214A90A5403E0BC000020A5
:100EF0000000F0BF00BF0A210E9890FBF1F201FB49
:100F0000120047B20E9890FBF1F000B20E9007F17C
:100F1000300042B23046711CCEB214A90A540E9869
:100F200008B1102EE7D31B9810F0080F05D02D2222
:100F30003046711CCEB214A90A5400201C906AE0FD
:100F400002201D9017E008201D9014E000BF0A2029
:100F50001D9010E010201D900DE0E2B24046DDE94A
:100F60002013FFF7CEFD9DF82100404400F0FF085C
:100F70000120109091E000BF19F0040F05D02C98CB
:100F800000682C99091D2C910CE0442F05D12C9858
:100F900000682C99091D2C9104E02C9800682C996C
:100FA000091D2C911890442F08D1189810F0004F6B
:100FB00004D018984042189049F00809002600BF54
:100FC0001D991898B0FBF1F201FB120047B21D9970
:100FD0001898B0FBF1F01890092F06DD782C01D19C
:100FE000272000E00720384447B207F1300042B222
:100FF0003046711CCEB214A90A54189808B1102EAC
:10100000DED319F0080F05D02D223046711CCEB268
:1010100014A90A5400BFB24619F0010F01D03020C4
:1010200000E0202047B20AE0FAB24046DDE9201392
:10103000FFF767FD9DF82100404400F0FF0819F01C
:10104000020F05D15046411C01F0FF0A5845EBDB69
:1010500000BF701EC0B2064614A90A5C4046DDE916
:101060002013FFF74EFD9DF82100404400F0FF08DB
:10107000002EEED10AE0FAB24046DDE92013FFF778
:1010800040FD9DF82100404400F0FF085046411CFF
:1010900001F0FF0A5845EEDB00BF10991298084492
:1010A00000B212901098401C7FF4AEAD00BF23B088
:1010B000BDE8F08F0FB47CB504460D4616460AA86D
:1010C000019001980090324629462046099BFFF77F
:1010D00086FD7CBC5DF814FB2DE9F04106460F4609
:1010E00015461C4615F0030006D001282AD0022818
:1010F00008D0032825D114E0002239463046FFF7F6
:10110000C0FC25E014F0010F05D00122394630461D
:10111000FFF7B7FC04E0002239463046FFF7B1FC88
:1011200016E004F00300022805D3012239463046B8
:10113000FFF7A7FC04E0002239463046FFF7A1FC88
:1011400006E000BF012239463046FFF79AFC00BF97
:1011500000BFBDE8F0812DE9FF4F81B081460398C3
:10116000A0EB090004B202990498401A05B2002CC1
:1011700001DD012000E000200121C1EB40000FFA59
:1011800080FA002D01DD012000E000200121C1EBEB
:1011900040000FFA80FB0FFA89F702980FFA80F8E7
:1011A000002000900026002C01DA604200E020467A
:1011B00004B2002D01DA684200E0284605B2AC42D4
:1011C0001EDD0FFA89F716E00098401C009041469A
:1011D0003846009B0E9AFFF77FFF701906B2B4EBFA
:1011E000460F05DC08EB0B000FFA80F8301B06B247
:1011F00007EB0A0007B203985044B842E4D11EE05E
:1012000002980FFA80F816E00098401C00904146C2
:101210003846009B0E9AFFF75FFF301906B2B5EB18
:10122000460F04DC07EB0A0007B2701B06B208EB9E
:101230000B000FFA80F8049858444045E4D105B0FB
:10124000BDE8F08F2DE9F84F04460D4690464FF06B
:10125000000B002D01DCBDE8F88F012D08D154F8FA
:10126000049BD4F800A0012251464846FFF709FC30
:1012700054F8049B54F804AB4FF0010B0FE040CC42
:1012800080CC3B46324651464846CDF80080FFF7B9
:1012900062FFB146BA460BF1010000F0FF0BAB450F
:1012A000EDDB00BFD7E72DE9F84F06460C461746A1
:1012B0001D46DDF828804FF00009CA4618F0040FDB
:1012C00002D1B8F1000F35D1BE4202D9B1463E4637
:1012D0004F46AC4202D9A1462C464D46B8F1000F0C
:1012E00002D14FF0000A01E04FF0010AAC4209D1EF
:1012F00023463A4621463046CDF800A0FFF72BFFA3
:10130000BDE8F88FBE4208D12B4632462146304612
:10131000CDF800A0FFF71FFFF2E708E023463A46AA
:1013200021463046CDF800A0FFF715FF641CAC4203
:10133000F4D91FE02B46324621463046CDF80080D6
:10134000FFF709FF2B463A4629463046CDF8008084
:10135000FFF701FF2B463A4621463846CDF800807C
:10136000FFF7F9FE23463A4621463046CDF8008085
:10137000FFF7F1FE00BFC3E72DE9F84F06460F4621
:101380009046994600241FFA88F50320A0EB4800F8
:101390000FFA80FA65E0B9F1040F20D10123009320
:1013A0007B19321B79193019FFF7D5FE0123009301
:1013B0007B1B321B791B3019FFF7CDFE01230093F5
:1013C0003B19721B39197019FFF7C5FE01230093F1
:1013D0003B1B721B391B7019FFF7BDFE27E0791903
:1013E00030194A46FFF74DFB7919301B4A46FFF783
:1013F00048FB791B30194A46FFF743FB791B301B2A
:101400004A46FFF73EFB391970194A46FFF739FB88
:101410003919701B4A46FFF734FB391B70194A46CD
:10142000FFF72FFB391B701B4A46FFF72AFB601C96
:1014300084B2BAF1000F0EDB681E85B2A0000FFA6D
:1014400080FBABEB85000FFA80FB0BF10A005044E8
:101450000FFA80FA05E0062000EB840050440FFAF2
:1014600080FAA54297DCBDE8F88FF0B50446059DEB
:10147000C80800FB0320005D01F00706C6F107075E
:101480000126BE40304201D0012000E00020C0B261
:10149000F0BD2DE9F84F07460E4693469946DDE923
:1014A0000A8A00240025464400BF21E000241BE0F6
:1014B0004B465A4621462846CDF80080FFF7D5FF17
:1014C00028B1311B78195246FFF7DBFA0AE0BAF16E
:1014D000000F01D1012300E00023DAB2311B78199B
:1014E000FFF7CFFA601C04B24445E1D3681C05B293
:1014F0004D45DBD3BDE8F88F4C48002101600171F8
:1015000000204A4948718871704748498979474A9B
:10151000505411468979491CC9B29171052901DBE2
:1015200000219171704741484079404A9279904238
:1015300001D1002070473D4840793C4A115C10467B
:101540004079401CC0B25071052801DB0020507169
:101550000846EFE7F8B5044600BF00BF206806F074
:10156000ACFB001D00EB40004006060EC6F18000FB
:10157000C0F34705236800932DA301223821A81C3E
:10158000FFF798FD012300933923AA1C1946062072
:10159000FFF7E1FD0123A919881E00933923792261
:1015A0001946FFF7D8FD606850B12348007838B974
:1015B0008523009321A3012238210020FFF77AFD23
:1015C000F8BD00B502461E480260FFF795FF00BD5A
:1015D00000B503461846FFF798FF00BD194800788C
:1015E000704710B5FFF79FFF164908701448006850
:1015F000FFF7B0FF124909688868804711480078F2
:10160000602812D10C48007878B90D48006840680D
:1016100058B10B48006840680949086000200A4931
:101620000968087008490968487010BDCC0000209E
:101630005B202573205D0000C500002025630000AD
:10164000C8000020C4000020400100200146FA48E4
:1016500000684078081A0AD4F74800684078081AE9
:10166000F54A1268D278904201DC012070470020D0
:10167000FCE70146F04800688078401AEE4A12689C
:1016800052781044C00070472DE9F04F8BB00646E9
:10169000884617464FF0000900200A9082460990BC
:1016A000834600BF0890464503DA0A964646DDF8B1
:1016B0002880102F00DD1027DF4800688670A6EB19
:1016C0000800DD490968C870DB480068C078B84286
:1016D00003DB781ED8490968C870FFF77FFF824690
:1016E000BAF1500F1FD1D4480068007800280ADDF5
:1016F000D248007838B9D04800680078401ECE49FA
:101700000968087039E0CC4800684078002834DD6A
:10171000CA48007888BBC84800684078401EC6495F
:101720000968487029E0BAF1200F26D1C248006844
:101730000078C1490968C97888420ADABF48007848
:1017400038B9BD4800680078401CBB49096808707A
:1017500013E0B94800684178B7480068C078381A83
:10176000401E814209DAB548007830B9B2480068B5
:101770004078401CB04909684870AF48006840781C
:10178000AD4909680978084400F0FF0BF000AA4948
:10179000096848604FEAC800A74909688860A648F8
:1017A00000684168A44800680078A1EBC000C0B29E
:1017B000099086230093A2A3012200200999FFF734
:1017C00079FC062E0FD002239B48009300684068E6
:1017D00000F1080398480068406800F108017F2282
:1017E0000020FFF7B8FC6EB1022393480093006815
:1017F0008068431E904800688068411E7F22002058
:10180000FFF7A9FC384606F0C9FECDE906018A4972
:1018100009684968884A12689268891A01F10800C3
:1018200006F0BCFECDE90401DDE9062306F0EAFC82
:1018300004460D460BF1010006F099FE22462B46A8
:10184000CDE9000106F0FAFECDE904017A49096804
:101850004968C81D06F0A2FECDE90201DDE90423B6
:1018600007F02CF8CDE9060106F054FE0890089820
:1018700006F094FE22462B46CDE9020106F010FC4C
:10188000CDE9040106F046FE0423009307900346C9
:101890007F227C200899FFF706FD0123664800930C
:1018A00000684068C31D644800687F2281687C200E
:1018B000FFF7F9FC4FF000090BE0CB4501D1012007
:1018C00000E000205F4901F8090009F1010000F083
:1018D000FF09B945F1DD0BB0BDE8F08FF8B504465E
:1018E0000D46002600275548007810F0020F00D062
:1018F000F8BD102C00DBFBE72046FFF7A7FE012810
:1019000036D12046FFF7B5FE06464E48005D012859
:101910000DD1FFF763FE0746402F08D14A48056006
:1019200000204549096808704349096848702B68D8
:10193000009346A3012231460620FFF7BBFB872315
:1019400000933FA3012231467320FFF7B3FB3A48CF
:10195000006840783849096809780844A04207D1EE
:101960008423009336A3012238217A20FFF7A2FBBB
:1019700000BFBDE72DE9F04106460027002E01DB40
:10198000304600E070424FFA80F80024304D0027C6
:1019900014E0002E08DB00222E4B2046294606F0DC
:1019A0004DFE04460D4607E02B4A2C4B20462946A7
:1019B00006F044FE04460D46781C07B24745E8DBB6
:1019C00020462946BDE8F0812DE9FF4F8FB09246B1
:1019D0001CAE96E8C00300200B900A9000210C4634
:1019E0000D4609900890834607900690059013488D
:1019F000007810F0020F02D013B0BDE8F08F42461D
:101A00004B463046394606F0DDFD05D2CDE90C6780
:101A100046464F46DDE90C890F98102800DBEBE7BE
:101A2000BAF1060F28D2DFE80AF0031B281E212492
:101A30002098099024E0000040010020C50000200B
:101A400025630000210D0020C80000202573000040
:101A50000000F03F000024409A9999999999B93F64
:101A6000209808900CE02098079009E020980690B4
:101A700006E02098059003E000BFDDF880B000BFCD
:101A800000BF0F98FFF7E2FD01287ED10F98FFF706
:101A9000F0FD0B90F9490F98085C012876D1FFF70B
:101AA0009DFD0A900A98402805D1F548007880F0FD
:101AB0000100F3490870F248007810F0010F65D07A
:101AC000F04890F90000FFF755FF04460D460A98CC
:101AD00050287CD1BAF1060F7AD2DFE80AF0032051
:101AE000953C5A7A099991F9000006F040FD22468A
:101AF0002B46CDE9000106F0D3FA32463B46CDE94C
:101B0000020106F05FFD09D82046294606F0D2FC06
:101B100009990978084441B20998017090E0089940
:101B2000087806F03BFD22462B46CDE9000106F081
:101B3000B7FA32463B46CDE9020106F043FD09D82B
:101B40002046294606F0E6FC089909780844C1B207
:101B50000898017074E00799086806F008FD2246AD
:101B60002B46CDE9000106F09BFA32463B46CDE913
:101B7000020106F027FD0BD82046294606F09AFC04
:101B8000079909680144079801E0CCE11EE1016072
:101B900056E00699086806F07BFF22462B46CDE901
:101BA000000106F07DFA32463B46CDE9020106F01F
:101BB00009FD0BD82046294606F040FA0490069805
:101BC0000168049806F090FF0699086038E038E054
:101BD00019E0059903C922462B46CDE9000106F01C
:101BE0005FFA32463B46CDE9020106F0EBFC09D82C
:101BF000059903C922462B46CDE9020106F050FAA9
:101C0000059A03C21CE000BFBBF9000006F0AFFC60
:101C100022462B46CDE9000106F042FA32463B4609
:101C2000CDE9020106F0CEFC09D82046294606F08F
:101C300041FCBBF80010084400B2ABF8000000BF44
:101C4000E6E00A98202879D1BAF1060F77D2DFE8CA
:101C50000AF00320923C5777099991F9000006F0A9
:101C600086FC22462B46CDE9000106F027FE4246BF
:101C70004B46CDE9020106F0DFFD09D82046294692
:101C800006F018FC09990978081A41B20998017000
:101C90008DE00899087806F081FC22462B46CDE9B4
:101CA000000106F00BFE42464B46CDE9020106F06C
:101CB000C3FD09D82046294606F02CFC089909786E
:101CC000081AC1B20898017071E00799086806F017
:101CD0004EFC22462B46CDE9000106F0EFFD4246C0
:101CE0004B46CDE9020106F0A7FD08D8204629465B
:101CF00006F0E0FB07990968091A0798016056E0A9
:101D00000699086806F0C4FE22462B46CDE900017C
:101D100006F0D4FD42464B46CDE9020106F08CFDAB
:101D20000BD82046294606F089F9049006980168E8
:101D3000049807F004F90699086038E038E019E0E3
:101D4000059803C822462B46CDE9000106F0B6FDF2
:101D500042464B46CDE9020106F06EFD09D80598D2
:101D600003C822462B46CDE9020106F0A7FD059ADD
:101D700003C21CE000BFBBF9000006F0F8FB2246DE
:101D80002B46CDE9000106F099FD42464B46CDE9D0
:101D9000020106F051FD09D82046294606F08AFBCB
:101DA000BBF80010081A00B2ABF8000000BF2FE02B
:101DB0000A9830280BD1334890F90000042827DA1C
:101DC00030480078401C40B22E49087020E00A9844
:101DD00010281DD1BAF1040F02D0BAF1050F0CD1B1
:101DE000284890F9000010F1030F11DD2548007814
:101DF000401E40B2234908700AE0224890F90000D2
:101E0000002805DD1F480078401E40B21D490870BB
:101E1000BAF1060F48D2DFE80AF0030E4818223B59
:101E2000099890F90030009317A3012244200B99E0
:101E3000FFF740F944E008980378009312A30122C9
:101E400044200B99FFF736F93AE0079803680093AE
:101E50000DA3012244200B99FFF72CF930E00699DD
:101E6000086806F015FECDE9020108A30122CDE9BC
:101E7000000144200B99FFF71DF921E0210D0020FE
:101E8000C5000020440100202564000025660000F4
:101E9000059903C9AFF20C030122CDE900014420EA
:101EA0000B99FFF707F90BE000BFBBF90030009377
:101EB000AFF22C03012244200B99FFF7FBF800BF7F
:101EC00000BFFB48007810F0010F11D0F9490F98BE
:101ED000085C01280CD18323CDE9024504938223B9
:101EE0000093F5A3FE2200200B99FFF7E3F808E02A
:101EF000109B0093AFF2AC43012206200B99FFF731
:101F0000D9F8EF4800684078ED490968097801443C
:101F10000F98814207D184230093E8A3012238213E
:101F20007A20FFF7C7F800BF66E50FB47CB504461A
:101F30000025102C02DB7CBC5DF814FB2046FFF76B
:101F400085FB01280ED12046FFF793FB054608A824
:101F5000019001980090012229460620079BFEF778
:101F60003EFE00BF00BFE6E72DE9F84304460D46FC
:101F700016460027B846B946CD48007810F0020F43
:101F800001D0BDE8F883102C00DBFAE72046FFF70C
:101F90005DFB012834D12046FFF76BFB0746C5489F
:101FA000005D012807D1FFF719FB8046B8F1400F0B
:101FB00001D14FF00109AFF26C53012239460620DE
:101FC0000095FFF777F8BFA3012239464420FFF7B9
:101FD00071F8B9F1010F02D14FF00009B047B848CC
:101FE00000684078B649096809780844A04207D1DA
:101FF00084230093B1A3012238217A20FFF75AF8F5
:1020000000BFBEE72DE9F84F04460F4615461E46B1
:102010004FF00009CA46012000FA06F8A4480078EB
:1020200010F0020F01D0BDE8F88F012E01DB202E49
:1020300000DD0126102C00DBF5E72046FFF706FB4C
:1020400001283BD12046FFF714FB81469948005DEB
:10205000012809D1FFF7C2FA8246BAF1400F03D135
:10206000286880EA08002860AFF220630122494610
:1020700006200097FFF71EF8286810EA080F06D020
:1020800091A3012249464420FFF714F805E090A3EC
:10209000012249464420FFF70DF88948006840783E
:1020A0008749096809780844A04207D1842300932E
:1020B00082A3012238217A20FEF7FCFF00BFB2E79D
:1020C00070B504460E461546284605F0F6FDA042BA
:1020D00005D922462946304605F09CFE03E02946F4
:1020E000304605F0C6FD70BD2DE9FF4F85B0814635
:1020F00092469B46002004900027002400250026DD
:10210000BAF1290F02DA0AF1010000E029201FFAD2
:1021100080F8B9F1100F02DB09B0BDE8F08F484636
:10212000FFF794FA012878D14846FFF7A2FA049005
:10213000604810F8090001286ED1FFF74FFA0746F2
:10214000402F2CD16448008818BB6448008800BB2D
:102150005748007810F0020F0BD05548007820F057
:102160000200534908705E4A59465046FFF7A8FFDF
:1021700015E04F48007840F002004D4908702921D1
:10218000574805F020FE5A4655494046FFF798FF4C
:1021900005E04748007880F004004549087044484D
:1021A000007810F0020F37D04B4800884B4909885F
:1021B000132202FB010086B2502F3ED13C4800782A
:1021C00010F0040F2AD0474800680178454800689D
:1021D000001D50F82100017842480068027841480B
:1021E0000068001D50F82200007A401E814215DA76
:1021F0003C48006801783B480068001D50F8210009
:102200000078401CC1B23748006802783548006841
:10221000001D50F822000170B2E0EDE12448007882
:1022200010F0040F08D12D480088002804DD2B4849
:102230000088401E29490880A2E0202F54D11C4864
:10224000007810F0040F1FD0264800680178254858
:102250000068001D50F821000078002814DD214896
:10226000006801781F480068001D50F821000078C0
:10227000401EC1B21B48006802781A480068001D61
:1022800050F8220001707BE00948007810F0040F3C
:1022900076D112480088042872DA06F1130040450E
:1022A0006EDA0E480088401C0C49088068E0000087
:1022B000C5000020210D0020256325662563000050
:1022C000400100202D3E00005B4F4E205D000000CD
:1022D0005B4F46465D00000046010020480100209B
:1022E000F80C00203C010020302F20D1FF4800785E
:1022F00010F0040F0CD0FE4800680078002807DDBD
:10230000FB4800680078401EF9490968087037E00A
:10231000F648007810F0040F32D1F6480088002803
:102320002EDDF4480088401EF249088028E0102F76
:1023300026D1EE48007810F0040F10D0EC48006869
:102340000178EB4800684078401E814207DAE8488F
:1023500000680078401CE6490968087010E0E3480E
:10236000007810F0040F0BD1E2480088122807DA39
:10237000701C404504DADF480088401CDD490880B5
:10238000DA48007810F0020F75D0FEF76CFB0123DD
:1023900000933F237F2200210846FEF784FF01239C
:1023A000009309237F2219460020FEF7D4FECF4870
:1023B000007810F0040F41D0CD4800680178CC4877
:1023C0000068001D50F82100C168C9480068027803
:1023D000C7480068001D50F822000078095C701E94
:1023E000C54A1154C24800680178C1480068001D00
:1023F00050F8210043680093AFF6B0130122114654
:102400000220FEF757FEBA4800680178B848006815
:10241000001D50F82100C168B54800680278B44832
:102420000068001D50F8220000780B5C0093B3A3F5
:10243000012211464020FEF73DFE1AE0B148008817
:1024400048B9AC48008830B9AFA301221146022038
:10245000FEF730FE0DE0A74803885B1CA948028800
:10246000521CCDE90023AAA3012211460220FEF747
:1024700021FE00247DE07FE0002576E0D4B9CDB9CF
:102480009C48008860B99F48008848B9852300931C
:10249000AFF2D813FE2230210620FEF70BFE62E0D9
:1024A00085230093AFF2EC13012230210620FEF7C2
:1024B00001FE58E0132000FB0450401E86B2464542
:1024C0004FDA8C480088A84227D18E480088A04265
:1024D00023D18948805D78B989233022A2EBC401D9
:1024E00005EB45020093062303EB4200AFF23423D1
:1024F000FE22FEF7DFFD36E07F48835D3022A2EB4F
:10250000C40105EB45020093062303EB4200AFF242
:102510005423FE22FEF7CEFD25E07748805D78B992
:1025200089233022A2EBC40105EB45020093062368
:1025300003EB4200AFF27C230122FEF7BBFD12E069
:102540006D48835D3022A2EBC40105EB4502009388
:10255000062303EB4200AFF29C230122FEF7AAFD03
:1025600001E008241525681C85B2132D86DB601C4C
:1025700084B2052C80DB2DE0069B0093AFF634334C
:10258000012206200499FEF795FD5A4602A907206C
:10259000FFF796FD02AB0093AFF6503301224420C3
:1025A0000499FEF787FD584605F087FB072808D9F0
:1025B00089230093AFF2FC2301226D200499FEF7DA
:1025C00079FD88230093AFF20C3301227320049924
:1025D000FEF770FD51480068407850490968097855
:1025E0000844484508D184230093AFF230330122D8
:1025F00038217A20FEF75EFD00BF8DE50FB47CB573
:1026000004460D4616463948007810F0020F02D0F5
:102610007CBC5DF814FB0AA801900198009032463A
:1026200029462046099BFEF7DAFA00BFF0E72DE9BC
:10263000FF4F87B007460E4691469846DDF85CB0DE
:10264000DDF854A00020059000BF049027480078D2
:1026500010F0020F02D00BB0BDE8F08F1498504577
:1026600005DA14980590CDF850A0DDF814A014995F
:102670001698884201DA169800E014981690169879
:10268000504501DD169800E0504616901499A1EBD4
:102690000A0005F06CFFCDE902011699A1EB0A00D2
:1026A00005F065FFCDE90001DDE9022305F0AAFD93
:1026B00004460D461BF0010F64D1484605F06EFF3D
:1026C00022462B46CDE9000105F0B8FFCDE9020115
:1026D00005F020FF04901BF0060F2FD1012300937B
:1026E00006EB080307EB0902314619E0C50000209C
:1026F0003C01002046010020F80C00205B202563EF
:10270000205D0000480100204241434B00000000D2
:102710004C3A256420433A25640000004001002023
:102720003846FEF7C0FD0423009306EB0803049827
:102730003A1831463846FEF7B6FD6AE00BF006005F
:10274000022866D10123009306EB080307EB090278
:1027500031463846FEF7A7FD0123009306EB080338
:1027600004983A1831463846FEF79DFD0023009341
:1027700006EB080307EB090206EB08013846FEF7F3
:10278000EAFC46E0404605F009FF22462B46CDE92B
:10279000000105F053FFCDE9020105F0BBFE0490F6
:1027A0001BF0060F14D10123009306EB080307EB7F
:1027B000090231463846FEF776FD0423009304985B
:1027C000331807EB090231463846FEF76CFD20E06E
:1027D0000BF0060002281CD10123009306EB08032E
:1027E00007EB090231463846FEF75DFD01230093F1
:1027F0000498331807EB090231463846FEF753FDBB
:102800000023009306EB08033A4631463846FEF7AC
:10281000A2FC00BF1FE72DE9FF4F91B080460F4695
:102820009146DDE91EA600200F900E9000BF00BF6C
:1028300000210A910B91CDF82480089707908346D8
:1028400006900590B448007810F0020F02D015B041
:10285000BDE8F08FB24503DACDF83CA0B2460F9E3A
:10286000484605F09BFECDE90201209805F096FE52
:10287000CDE90001DDE9022305F0C4FCCDE90C013E
:10288000AAEB060005F073FECDE90201149805F0ED
:1028900085FECDE90001DDE9022305F0B3FC044625
:1028A0000D4600200E903CE00AA80FC805F0F8FB8A
:1028B000CDE90A01DDE90A0105F0FCFD219951F895
:1028C00020B00E9840440690B34512DBD34510DA91
:1028D000ABEB060005F04BFE22462B46CDE900018E
:1028E00005F0ACFECDE9020105F014FE3844059078
:1028F00007E0B34501DA059703E014983844401E19
:10290000059001230093DDE90532DDE90810FEF7AB
:1029100022FC06980990059808900E98401C80B2F9
:102920000E900E984845BFD3012300931498384465
:10293000431E08EB0900421E39464046FEF7B3FC31
:10294000002E14DA704205F012FE22462B46CDE925
:10295000000105F073FECDE9020105F0DBFD38440E
:102960000790012208F101000799FEF78AF800BFDD
:102970006DE72DE9FF4705460E4617469846DDE907
:102980000C9A0E9C6448007810F0020F01D0BDE84C
:10299000FF8722886368CDE9009ACDE90223434688
:1029A0003A4631462846FFF736FF00BFEFE730B51D
:1029B0000A460023012100BF00BF09E0446854F823
:1029C0002140456845F823405C1CA3B24C1CA1B2D1
:1029D00004888C42F2DC0488641E456845F8242093
:1029E00030BD2DE9FF4F89B080468A4615461C460A
:1029F000DDE917B9002008900790069005900026A1
:102A000000270AEB0400049000200390424800785D
:102A100010F0020F02D00DB0BDE8F08F012119981F
:102A200021EAD01003905D450BD34C4509D3039B9D
:102A3000CDE900935B4651464046169AFEF729FDC4
:102A400058E0284606F094F90290584606F090F9AE
:102A50000190029906F0AAF80890204606F088F93D
:102A60000290484606F084F90190029906F09EF81B
:102A7000079000273CE0384606F07AF90190089963
:102A800006F08AF9029006F053F980B2069000260B
:102A90002AE0304606F06CF90190079906F07CF9BF
:102AA000029006F045F980B205905B46CDF80090A3
:102AB000169ADDE90510FEF7D8FC38B1049A911B8F
:102AC00008EB0700039AFDF7DCFF0BE0039B0BB953
:102AD000012300E00023DAB2049B991B08EB0700F6
:102AE000FDF7CFFF701C86B2A642D2D3781C87B206
:102AF000AF42C0D3199810F0400F0BD001230AEB5E
:102B000004000093431E08EB0500421E5146404658
:102B1000FEF7C9FB00BF7EE7C500002070B5054683
:102B2000002635B904F057F9044604B900E003263D
:102B300001E0012600BF00BF304670BD0146002005
:102B400070472DE9F04706460F4690461C464FF069
:102B5000000914B90420BDE8F08766B92246414651
:102B6000384604F02CFF054615B94FF0000901E086
:102B70004FF0010902E04FF0010900BF00BF4846D5
:102B8000E9E72DE9F0470746884691461C464FF095
:102B9000000A1F2614B90420BDE8F0879FB90BE096
:102BA00022464946404604F042FF054615B94FF01B
:102BB000000A03E0701EC6B2002EF1D100BF0EB9AC
:102BC0004FF0010A02E04FF0010A00BF00BF50467B
:102BD000E2E7002070472DE9F04780468946144619
:102BE0004FF0000AB8F1000F23D1B9F1000F06D061
:102BF000B9F1010F0CD0B9F1030F16D102E04FF07B
:102C0000000A15E00D48006D20804FF0000A0FE02B
:102C10000A48056D2A460023D0E91261304605F0C6
:102C200004F820804FF0000A02E04FF0040A00BFD1
:102C300001E04FF0010A5046BDE8F087801F0020F8
:102C400070B503460C4603E014F8015B03F8015B22
:102C50001500A2F10102F7D170BD30B5034601E0C5
:102C600003F8011B1400A2F10102F9D130BDF0B547
:102C700003461C460D46002000BF1600A2F10102CB
:102C800007D014F8017B15F801CBA7EB0C06300038
:102C9000F3D0F0BD024600E0521C107810B110785D
:102CA0008842F9D11078704730B502460B460020B3
:102CB0000446014621E001EB4100FB4D55F82000A0
:102CC000C8B101EB410055F820001568A84213D1A6
:102CD00001EB4100F44D05EB800040689568A84287
:102CE0000AD101EB4100F04D05EB80000089D58849
:102CF000A84201D103E0641C491C0229DBD300BFB8
:102D0000022907D10CB9022B01D1002000E01220CA
:102D1000C0B230BD43B901EB4100E34D05EB80008B
:102D20004089B0F5807F01D1102000E00020C0B2C2
:102D3000EFE7002100E0491C022906D201EB410027
:102D4000D94A52F820000028F5D1022901D00120EB
:102D500070470020FCE730B502460B4600211BE01F
:102D600001EB4100D04C54F820001468A04212D16D
:102D700001EB4100CC4C04EB800040689468A04219
:102D800009D101EB4100C84C04EB80000089D488D4
:102D9000A04200D102E0491C0229E1D300BF022970
:102DA00027D1002100E0491C022906D201EB410095
:102DB000BD4C54F820000028F5D1022901D1002093
:102DC00030BD01EB4104B84D106845F8240001EB1B
:102DD000410405EB840490686060D08801EB4104F5
:102DE00005EB84042081002001EB410405EB840401
:102DF000608143B101EB4100AB4C04EB80004089A2
:102E000008B10020DCE713B14FF4807006E001EB5D
:102E10004100A54C04EB80004089401C01EB4104BB
:102E2000A14D05EB84046081481CC9E730B502461A
:102E3000531E1A46022B1BD202EB42039A4C04EBA0
:102E400083035989B1F5807F00D1002109B14B1E60
:102E500099B202EB4203944C04EB8303598129B9E4
:102E6000002302EB4204904D45F82430002000E09E
:102E7000022030BD10B5014600200DE000EB4002FD
:102E8000894B53F822208A4205D1002200EB4003EF
:102E9000854C44F82320401C0228EFD310BD70B5A8
:102EA0000446207910B3256B607801232A4604F18B
:102EB0003401FFF766FE08B1012070BD00202071CB
:102EC000606AA84212D8E169606A0844A8420DD934
:102ED000E67809E0E0690544607801232A4604F1B8
:102EE0003401FFF74EFE761E022EF3D20020E4E7F7
:102EF00070B504460D46206BA84210D02046FFF75F
:102F0000CEFF08B1012070BD607801232A4604F18C
:102F10003401FFF716FE08B10120F4E72563002015
:102F2000F1E770B504462046FFF7B9FF0546F5BB4B
:102F30002078032850D16079D0B3002020634FF46B
:102F40000072002104F13400FFF787FE552184F858
:102F50003212AA2184F8331252213420015584F808
:102F60003510612184F83610412184F83710722120
:102F700084F8181284F81912412184F81A12612178
:102F800084F81B12206984F81C022069010A84F865
:102F90001D122069010C84F81E122069010E84F8AC
:102FA0001F12E06884F82002E068010A01E01AE0DC
:102FB00012E084F82112E068010C84F82212E06823
:102FC000010E84F823126078012304F13401626950
:102FD000FFF7D7FD00206071607800221146FFF7EF
:102FE000FAFD00B10125284670BD0246891E906990
:102FF000801E884201D8002070479378D06A01FB78
:103000000300F9E72DE9F04105460C46022C02D3F6
:10301000A869A04202D80120BDE8F08128780128E3
:1030200004D002282CD003285CD13FE0274607EBD0
:103030005707686A00EB57212846FFF759FF00B190
:1030400050E0C7F3080105F1340010F801807F1C3F
:10305000686A00EB57212846FFF74AFF00B141E0BC
:10306000C7F3080105F13400405C48EA002814F079
:10307000010F02D04FEA1810CEE7C8F30B00CBE7E0
:10308000686A00EB14212846FFF732FF00B129E0FF
:1030900040F2FF1000EA440105F134000E183078C8
:1030A000717840EA0120B7E7340D0020686A00EB30
:1030B000D4112846FFF71CFF00B113E040F2FF10C7
:1030C00000EA840105F134000E18F0780006B178AA
:1030D00040EA0140717840EA01203178084320F04D
:1030E000704099E700BF4FF0FF3095E72DE9F047BA
:1030F00005460E461746022E02D3A869B04202D8F2
:103100004FF002088AE02878012804D0022841D034
:1031100003287DD154E0B14609EB5909686A00EBF8
:1031200059212846FFF7E4FE8046B8F1000F00D091
:1031300071E0C9F3080105F134000C1816F0010F15
:1031400004D0F9B2207861F31F1000E0F8B22070CB
:1031500009F1010901202871686A00EB592128460C
:10316000FFF7C6FE8046B8F1000F00D053E0C9F368
:10317000080105F134000C1816F0010F02D0C7F356
:10318000071005E0207800F0F000C7F303210843A2
:10319000207040E0686A00EB16212846FFF7A8FE81
:1031A0008046B8F1000F00D035E040F2FF1000EA91
:1031B000460105F134000C182770380A60702AE0C7
:1031C000686A00EBD6112846FFF792FE8046B8F1F8
:1031D000000F00D01FE040F2FF1000EA860105F169
:1031E00034000C18E0780006A17840EA01406178CC
:1031F00040EA01202178084300F07040074327701F
:10320000380A6070380CA070380EE07003E0FFE7F9
:103210004FF0020800BF00BF012028714046BDE802
:10322000F0872DE9F04104460E46022E02D3A06934
:10323000B04201D8022725E000271FE03146204692
:10324000FFF7E0FE054605B91BE0012D01D102277D
:1032500017E0681C01D1012713E000223146204607
:10326000FFF744FF074607B10BE02069401C04D07C
:103270002069401C2061012060712E46A069B04287
:10328000DCD800BF3846BDE8F0812DE9F0470446A0
:103290008946B9F1000F06D1E76817B1A069B842B5
:1032A00011D801270FE049462046FFF7ABFE06463E
:1032B000022E02D20120BDE8F087A069B04201D9F8
:1032C0003046F8E74F463D4600BF6D1CA069A84256
:1032D00004D80225BD4201D90020ECE7294620464A
:1032E000FFF790FE064606B909E0701C01D0012EDA
:1032F00001D13046DFE7BD42E7D10020DBE700BF68
:103300006FF0704229462046FFF7F0FE8046B8F184
:10331000000F08D1B9F1000F05D02A4649462046D2
:10332000FFF7E4FE8046B8F1000F09D1E56020699F
:10333000401C0DD02069401E20610120607107E013
:10334000B8F1010F02D14FF0FF3000E00120054637
:103350002846B0E770B503460D46586A021D680A54
:103360001E68B678B0FBF6F400BF02CA09B90020A7
:1033700070BD8C4200D202E0641A121DF5E700BF56
:1033800010682044F4E72DE9F04104460E46E6803B
:10339000A568012D03D020688069A84202D80220C8
:1033A000BDE8F0812DB920680078032801D120689C
:1033B000856A65B9E56020680089B04201DC0220B9
:1033C000EEE72068806A00EB1610206120E020689C
:1033D0008078070112E029462068FFF713FE0546B2
:1033E000681C01D10120DBE7022D03D3206880692E
:1033F000A84201D80220D3E7F01B86B2BE42EADA27
:10340000E56029462068FFF7F0FD00EB161020610B
:103410002068343006F00F0100EB4110606100209D
:10342000BEE72DE9F0410446884600BFE088401C15
:1034300086B20EB1206910B90420BDE8F08116F003
:103440000F0F6CD12069401C2061E06828B920680A
:103450000089B04263DC0420EFE720688078401EDA
:1034600010EA161F5BD1E1682068FFF7CBFD054627
:10347000012D01D80220E0E7681C01D10120DCE722
:1034800020688069A84244D8B8F1000F01D1042017
:10349000D3E7E1682068FFF7F8FE05460DB907207D
:1034A000CBE7012D01D10220C7E7681C01D1012023
:1034B000C3E72068FFF7F3FC08B10120BDE72168EE
:1034C00001F134004FF400720021FFF7C6FB2946DA
:1034D0002068FFF78AFD2168086300270FE00120BC
:1034E000216808712068FFF7DAFC08B10120A4E721
:1034F0002068006B401C21680863781CC7B22068F4
:103500008078B842EBDC2068006BC01B2168086340
:1035100000BFE56029462068FFF767FD2061E6806F
:103520002068343006F00F0100EB4110606100208C
:1035300083E72DE9F04104460E4600212046FFF7BF
:1035400022FF0546EDB9002700BF21692068FFF77B
:10355000CFFC054605B113E060690078E52802D08C
:103560006069007820B9781C0746B04201D107E0B5
:10357000002701212046FFF754FF0546002DE4D027
:1035800000BF2846BDE8F08110B502468C7ECB7E98
:1035900044EA03201378032B05D10C7D4B7D44EACC
:1035A000032340EA034010BD81760A0AC2760A0C62
:1035B00002750A0E427570472DE9F041044600215C
:1035C0002046FFF7E0FE054615B12846BDE8F0812C
:1035D00000BF21692068FFF78BFC054605B116E0A6
:1035E000666937780FB9042511E0F07A10F0080FFA
:1035F00006D10B223046A169FFF739FB00B906E07E
:1036000000212046FFF70DFF0546002DE1D000BF49
:103610002846DBE72DE9F04704468946042526E0E5
:1036200021692068FFF764FC054605B122E0D4F863
:10363000148098F800700FB904251BE098F80B006F
:1036400000F03F06E52F0BD02E2F09D00F2E07D00C
:10365000082E01D1012000E00020484500D109E0FA
:1036600000212046FFF7DDFE054605B102E0206996
:103670000028D5D100BF0DB1002020612846BDE84B
:10368000F08770B5044601212046FFF752FF05463A
:1036900095B921692068FFF72BFC054665B9202202
:1036A00000216069FFF7D9FA0B22D4E90501FFF781
:1036B000C7FA012021680871284670BD70B504461C
:1036C000E1882046FFF75FFE05465DB92169206865
:1036D000FFF70EFC05462DB9E52061690870012051
:1036E00021680871284670BD2DE9F35F8A46DAF833
:1036F000007000E07F1C38782F28FBD038785C28D9
:10370000F8D0009886690B2220213046FFF7A5FAF1
:103710000025A946AB464FF0080800BF58460BF1FC
:10372000010B3C5C202C03DD2F2C01D05C2C00D144
:1037300034E02E2C01D0C1450ED3B8F1080F01D1D1
:103740002E2C02D00620BDE8FC9F4FF008094FF058
:103750000B08A806050EE1E7802C03DB45F0030506
:103760000620F0E72146FFA0FFF794FA08B10620F3
:10377000E9E7412C04DB5A2C02DC45F0020508E0A5
:10378000612C06DB7A2C04DC45F00105A4F1200055
:10379000C4B2484609F101093454BFE700BF07EB42
:1037A0000B00CAF80000202C01DC042000E00020FF
:1037B000C4B2B9F1000F01D10620C4E73078E52882
:1037C00001D105203070B8F1080F01D1A806050E0F
:1037D00005F00300012801D144F0100405F00C00AD
:1037E000042801D144F00804F4720020ABE7F0B5DE
:1037F00005460B4603F109022F69F7B36869067B9A
:1038000000210AE0445C202C00D108E0052C00D106
:10381000E52400BF02F8014B491C0829F2D300BF80
:10382000077A202F0FD02E2702F8017B082107E00E
:10383000445C202C00D105E000BF02F8014B491C7C
:103840000B29F5D300BFC77A1F72C77F4FEA076CF9
:10385000877F4CEA074C477F4CEA072790F81CC04B
:1038600047EA0C071F6090F818C0477E4CEA07270C
:103870009F8090F816C0C77D00E002E04CEA072761
:10388000DF8000271770F0BD2DE9F3410446019851
:1038900000782F2803D0019800785C2802D1019885
:1038A000401C01900020A06001980078202807D2D9
:1038B00000212046FFF767FD05460020606129E0F2
:1038C00000BF01A92046FFF70FFF054605B120E024
:1038D0002046FFF771FE0546A069C67A45B1042D62
:1038E00000D016E000BF16F0040F00D1052510E04F
:1038F00016F0040F00D00CE06769F87A10F0100F92
:1039000001D1052505E039462068FFF73DFEA0609E
:10391000D7E700BF2846BDE8FC8170B504460D46D8
:10392000607801232A4604F13401FFF70AF908B14F
:10393000032070BD94F8321294F8330241EA00205B
:10394000A0F52A41553901D00220F2E794F86D0024
:10395000010694F86C0041EA004194F86B0041EADA
:10396000002094F86A10084320F07F408149884283
:1039700001D10020DDE794F88900010694F8880061
:1039800041EA004194F8870041EA002094F886104B
:10399000084320F07F407749884201D10020C8E7E2
:1039A0000120C6E72DE9F74F88B00898006801901C
:1039B0000198007830380790079809280AD80198AC
:1039C00040783A2806D10198801C01900899019806
:1039D000086001E000200790002109980160079825
:1039E00018B10B200BB0BDE8F08F6349079851F870
:1039F00020400CB90C20F5E709980460207878B1D4
:103A00006078FFF79BF8814619F0010F08D10A98FA
:103A100020B119F0040F01D00A20E3E70020E1E70C
:103A200000202070079860706078FFF777F8814673
:103A300019F0010F01D00320D4E70A9820B119F042
:103A4000040F01D00A20CDE74FF0000A514620466E
:103A5000FFF763FF054600BF012D27D14FF0000B94
:103A6000BBF1000F03D0ABF1010000F0FF0B4FF4EE
:103A7000DF7000EB0B1104F1340001EB000898F843
:103A8000040098B198F80B00010698F80A0041EA82
:103A9000004198F8090041EA002098F8081040EA2F
:103AA000010A51462046FFF738FF0546032D01D194
:103AB000012097E70DB10D2094E73F20015D94F8B8
:103AC000400041EA0020B0F5007F01D00D2089E7D9
:103AD0004A20015D94F84B0041EA002777B994F839
:103AE0005B00010694F85A0041EA004194F859003D
:103AF00041EA002094F8581040EA0107E7614420A9
:103B0000065DE670012E03D0022E01D00D2069E77C
:103B100077434120005D0646A07016B1701E30420A
:103B200001D00D205EE74520015D94F8460041EA92
:103B300000202081208910F00F0F01D00D2051E7C7
:103B40004720015D94F8480041EA0020069006985D
:103B5000E0B994F85700010694F8560041EA004194
:103B60000CE00000222A2B2C3A3B3C3D3E3F5B5DA3
:103B70007C7F0000464154004C01002094F8550021
:103B800041EA002094F85410084306904220015D59
:103B900094F8430041EA00200290029808B90D20F1
:103BA00020E702983844218900EB11100590DDE9E7
:103BB0000501814201D20D2014E7DDE90510401A0C
:103BC000A178B0FBF1F00490049808B90D2009E742
:103BD000012540F6F6710498884200D302254FF67D
:103BE000F6710498884200D303250498801CA061D4
:103BF000C4F820A002985044606205985044E062E6
:103C0000032D16D1208908B10D20EBE694F863004E
:103C1000010694F8620041EA004194F8610041EA2B
:103C2000002094F860100843A062A069800003900F
:103C300014E0208908B90D20D4E6606A3844A062F7
:103C4000022D02D1A069400007E0A06900F0010048
:103C5000A16901EB410100EB51000390E169039878
:103C600000F2FF10B1EB502F01D20D20BAE64FF059
:103C7000FF3020610020E060032D5CD1607194F87A
:103C8000641094F8650041EA002050446061607857
:103C9000012304F134016269FEF753FFF0BB94F88D
:103CA000321294F8330241EA0020A0F52A41553936
:103CB00041D194F83700010694F8360041EA0041FA
:103CC00094F8350041EA002094F834100843FB4989
:103CD000884230D194F81B02010694F81A0241EA96
:103CE000004194F8190241EA002094F818120843A0
:103CF000F34988421FD194F82302010694F8220266
:103D000041EA004194F8210241EA002094F820128F
:103D10000843E06094F81F02010600E00BE094F80D
:103D20001E0241EA004194F81D0241EA002094F885
:103D30001C12084320612570E2480088401C80B2B4
:103D4000E0490880E0800020206320712046FFF7D2
:103D500091F8002046E670B505462C464CB1206827
:103D600038B12068007820B12068C088A1888842D6
:103D700001D0092070BD21684878FEF7DFFE10F001
:103D8000010F01D00320F5E70020F3E770B50446EA
:103D90000D46012C01DB0B2070BDCB4850F8246090
:103DA00026B13046FFF766F8002030700DB10020D4
:103DB0002870C54840F824500020EDE72DE9F7436E
:103DC0008AB0054616461DB909200DB0BDE8F0833E
:103DD0000020286006F01F0626F0010203A90BA8A8
:103DE000FFF7E0FD07467FBBCDF824D003A80B9971
:103DF000FFF74AFD0746089C6FB90CB906270AE091
:103E000036F0010001D0012000E00020014603A8A7
:103E1000FEF74AFF074616F01C0F55D077B1042F66
:103E200008D1FEF786FF18B103A8FFF72AFC00E0CF
:103E30001220C7B246F00806089C0AE0E07A10F0AB
:103E4000110F02D0072704E080E016F0040F00D025
:103E50000827C7BB16F0080F35D0FEF7BAFE80461C
:103E600084F80E804FEA1820E0734FEA184121745D
:103E70004FEA186060740020E072207700216177BB
:103E8000A177E17721460398FFF77EFB8146002169
:103E90002046FFF789FB012003990871B9F1000F53
:103EA00011D00398D0F8308049460398FFF7B9F94C
:103EB000074647B9A9F101000399C8604146039834
:103EC000FFF716F807460EE06FB9E07A10F0100F12
:103ED00001D0042707E016F0020F04D0E07A10F0BA
:103EE000010F00D00727B7B916F0080F01D046F030
:103EF00020060398006BE8612C6236F0010001D0C7
:103F0000012000E00020014603A8FEF724FFA8627C
:103F1000A86A00B90227CFB9AE7121460398FFF70E
:103F200033FB2861E07F0106A07F41EA0041607F0A
:103F300041EA0020217F0843E8600020A860A861D2
:103F40006862039828600398C088A88038463CE7D8
:103F50002DE9FF4F83B0044615469A46DDF810B0B0
:103F60000020CAF800002046FFF7F5FE02900298F4
:103F700018B1029807B0BDE8F08FA07910F0800F5B
:103F800001D00220F6E7A07910F0010F01D107203F
:103F9000F0E7D4E90210401A00900098854200D959
:103FA000009DC4E0A068C005C00D70D12068807875
:103FB000401EA16800EA512000F0FF09B9F1000F8E
:103FC00025D1A06810B9206901900CE0606A28B181
:103FD0002046A168FFF7BEF9019004E061692068FE
:103FE000FFF710F801900198022805D2A07940F05F
:103FF0008000A0710220BDE70198401C05D1A07986
:1040000040F08000A0710120B4E70198606161690F
:104010002068FEF7EAFF06462EB9A07940F080003E
:10402000A0710220A6E74E444FEA5528B8F1000FD0
:104030002ED009EB080021688978884203D92068CE
:104040008078A0EB09082168487808F0FF03324621
:104050005946FEF776FD28B1A07940F08000A071A6
:10406000012087E7A07910F0400F0DD0A069801BD8
:10407000404509D2A169891B0BEB41204FF4007226
:1040800004F12C01FEF7DCFD4FEA482745E031E062
:10409000A069B0422DD0A07910F0400F1AD021684D
:1040A0004878012304F12C01A269FEF76AFD68B18A
:1040B000A07940F08000A07101205BE7525261417D
:1040C00072724161500100204C010020A07920F063
:1040D0004000A071216848780123324604F12C0188
:1040E000FEF72FFD28B1A07940F08000A0710120DB
:1040F00040E7A661A068C0F30800C0F50077AF42B2
:1041000000D92F46A068C0F3080204F12C00111852
:104110003A465846FEF794FD00BFBB44A0683844B9
:10412000A060DAF800003844CAF80000ED1B002D4A
:104130007FF438AF00201DE72DE9FF4F83B0044620
:1041400015469B46049801900020CBF800002046BD
:10415000FFF701FE0290029818B1029807B0BDE87F
:10416000F08FA07910F0800F01D00220F6E7A0793F
:1041700010F0020F01D10720F0E7E0682844E16861
:10418000884200D20025D5E0A068C005C00D7ED1D0
:1041900020688078401EA16800EA512000F0FF0AE4
:1041A000BAF1000F32D1A06858B9D4F81080B8F134
:1041B000000F13D100212068FFF767F880462061C7
:1041C0000CE0606A28B12046A168FFF7C3F880467A
:1041D00004E061692068FFF758F88046B8F1000FE5
:1041E00000D1AAE0B8F1010F05D1A07940F080001C
:1041F000A0710220B2E718F1010005D1A07940F0CA
:104200008000A0710120A9E7C4F81480A07910F003
:10421000400F12D021684878012304F12C01A269D3
:10422000FEF7AFFC28B1A07940F08000A07101201A
:1042300094E7A07920F04000A07161692068FEF742
:10424000D4FE06462EB9A07940F08000A07102206D
:1042500084E756444FEA5529B9F1000F30D00AEBF4
:10426000090021688978884203D920688078A0EB0A
:104270000A092168487809F0FF0332460199FEF7E0
:1042800080FC38B1A07940F08000A07100E02EE001
:10429000012063E7A069801B48450ED2A069801BFE
:1042A000019A02EB40214FF4007204F12C00FEF75A
:1042B000C7FCA07920F04000A0714FEA49272DE00B
:1042C000A069B04212D0D4E9020188420ED221681E
:1042D00048780123324604F12C01FEF732FC28B164
:1042E000A07940F08000A071012037E7A661A068A6
:1042F000C0F30800C0F50077AF4200D92F46A1688F
:10430000C1F3080204F12C0150183A460199FEF756
:1043100097FCA07940F04000A07100BF019838449C
:104320000190A0683844A060DBF800003844CBF866
:104330000000ED1B002D7FF427AF00BFD4E9020180
:10434000884201D9A068E060A07940F02000A07107
:10435000002003E72DE9F04104462046FFF7FBFC6F
:104360000746F7BBA07910F0200F48D0A07910F0D5
:10437000400F0FD021684878012304F12C01A26975
:10438000FEF7FFFB10B10120BDE8F081A07920F01D
:104390004000A071E1692068FEF7AAFD074607BB4F
:1043A000256AE87A40F02000E872E0682877E06843
:1043B000000A6877E068010CA977E068000EE877EA
:1043C00028462169FFF7F0F8FEF703FC0646AE75B4
:1043D000300AE875310C2976300E68760020A87412
:1043E00000E00CE00021E974A07920F02000A07129
:1043F0000120216808712068FEF793FD07463846C2
:10440000C2E770B504462046FFF7A4FF05461DB974
:10441000A06AFEF70BFD05460DB900202060284676
:1044200070BD2DE9FE4F04460D462046FFF793FC74
:104430000290029810B10298BDE8FE8FA07910F0AA
:10444000800F01D00220F7E7606AF0B3681C43D107
:10445000D4F8248058F804AB4FF0020926696EB3F3
:1044600000BF00964FF0000B09F1020900BF019652
:104470000BF1010B31462068FEF7C4FD0646012E04
:1044800005D8A07940F08000A0710220D4E7701C0C
:1044900005D1A07940F08000A0710120CCE70198FF
:1044A000401C8642E3D0D14504D848F804BB0098AC
:1044B00048F8040B20688069B042D2D8606AC0F81E
:1044C0000090D14505D8002000E053E0C8F8000076
:1044D0004FE0112002904CE0E068A84200D2E5686D
:1044E000A5608DB3691E2046FEF734FF60616169E7
:1044F0002068FEF77AFD07462FB9A07940F08000CA
:10450000A071022098E720688078401E691E00EAAA
:1045100051200744A068C005C00D2AD0A069B84248
:1045200027D0A07910F0400F13D0216848780123DC
:1045300004F12C01A269FEF724FB30B1A07940F010
:104540008000A071012077E713E0A07920F04000FF
:10455000A0712168487801233A4604F12C01FEF746
:10456000F0FA28B1A07940F08000A071012063E743
:10457000A761BFE0E068A84204D2A07910F0020F62
:1045800000D1E568D4F808904FF00008C4F808801E
:1045900095B3206880784702B9F1000F11D0681EEA
:1045A000B0FBF7F1A9F10100B0FBF7F0814208D3AD
:1045B000A9F10100791E8843A060A0682D1A6669E0
:1045C00018E02669AEB900212068FEF75EFE0646B7
:1045D000012E05D1A07940F08000A07102202BE7C8
:1045E000701C05D1A07940F08000A071012023E764
:1045F0002661666106B12AE042E0A07910F0020F60
:1046000007D031462068FEF740FE064636B93D46E3
:104610001FE031462068FEF7F5FC0646701C05D108
:10462000A07940F08000A071012005E7012E03D998
:1046300020688069B04205D8A07940F08000A07160
:104640000220F9E66661A0683844A060ED1BBD4217
:10465000D3D800BFA0682844A060E805C00D0FD0E3
:1046600031462068FEF7C1FC8046B8F1000F05D145
:10467000A07940F08000A0710220DDE608EB55280B
:10468000A068C005C00D2AD0A069404527D0A079F8
:1046900010F0400F12D021684878012304F12C015A
:1046A000A269FEF76EFA28B1A07940F08000A071EF
:1046B0000120C1E6A07920F04000A071216848786F
:1046C0000123424604F12C01FEF73BFA28B1A07900
:1046D00040F08000A0710120AEE6C4F81880D4E953
:1046E0000201884205D9A068E060A07940F020006E
:1046F000A07100BF02989FE673B584B0044614B958
:10470000092006B070BD0022214605A8FFF74AF92E
:104710000546266825BB01A8A06120460599FFF73C
:10472000B3F80546ADB9606958B16069C07A10F058
:10473000100F05D030466169FEF726FFA06000E04B
:10474000052535B9F088A08000212046FEF71BFE24
:104750000546042D00D1052525B10020206001E08B
:10476000002020602846CCE7FEB505460E462846C8
:10477000FFF7F1FA04460CBB2EB900212846FEF7DC
:1047800002FE04461AE0C5F818D000212846FEF7BC
:1047900041FF0446042C02D10020286100246CB99A
:1047A00031462846FFF723F800212846FEF739FE58
:1047B0000446042C02D10020286100242046FEBDBE
:1047C00033B58BB00D46002204A90BA8FFF7EAF819
:1047D00004467CB901A80A9004A80B99FFF754F885
:1047E00004463CB9099820B1294604A8FEF7FFFF0A
:1047F00000E0062420460DB030BD2DE9F74F82B011
:104800008B46002202A80499FFF7CCF80190049887
:1048100004680198F0BBA069801E2169814203D819
:104820002069CBF8000067E094F800A00026BAF1F8
:10483000010F1CD1022700BF39462046FEF7E2FBDC
:10484000804618F1010002D1012001900EE0B8F17C
:10485000010F02D10220019008E0B8F1000F00D151
:10486000761C781C0746A1698842E5D33CE0A7691D
:10487000606A00904FF00009002500BFB9F1000FF9
:1048800010D10098421C014620460092FEF730FBF2
:10489000019000E030E0019800B124E004F134051B
:1048A0004FF40079BAF1020F09D12878697850EAFB
:1048B000012000D1761CAD1CA9F1020910E0E878B6
:1048C0000006A97840EA0140697840EA0120297889
:1048D000084330F0704000D1761C2D1DA9F1040969
:1048E000781E0700CAD100BF2661BAF1030F01D1BB
:1048F00001206071CBF80060019805B0BDE8F08F31
:1049000070B504462046FFF726FA054655B9A0794A
:1049100010F0800F01D0022504E0A07910F0020F02
:1049200000D10725B5BBD4E9021088422DD9A06873
:10493000E060A07940F02000A071A06838B921693A
:104940002068FEF76EFC0546002020611DE06169CD
:104950002068FEF757FB06460025701C00D1012594
:10496000012E00D1022585B920688069B0420CD99A
:104970006FF0704261692068FEF7B8FB054625B903
:1049800031462068FEF74DFC05461DB1A07940F088
:104990008000A071284670BD71B591B001220AA9AE
:1049A00011A8FEF7FFFF0446F4BBCDF840D00AA8DB
:1049B0001199FEF769FF044600BF24B902210AA835
:1049C000FEF772F904467CBB0F9E0EB9062404E084
:1049D000F07A10F0010F00D0072431460A98FEF754
:1049E000D3FD0546ECB9F07A10F0100F19D0022D66
:1049F00001D2022415E01C220AA903A8FEF720F91F
:104A00000595022103A8FEF7BEFC04464CB900211F
:104A100003A8FEF7FFFD044604B90724042C00D1C7
:104A200000240CB90AA800E00EE0FEF747FE044699
:104A300054B925B129460A98FEF7F3FB04461CB980
:104A40000A98FEF76EFA0446204612B070BD2DE9B2
:104A5000F1478BB0FEF7BDF80646012204A90BA86A
:104A6000FEF7A0FF0546F5BB01A80A9004A80B9924
:104A7000FEF70AFF054605B9082500BF042D32D10F
:104A800000210498FEF701FC0746002507B9072519
:104A9000012F00D10225781C00D101251DB90498F1
:104AA000FEF7FDF90546F5BB39460498FEF79DFA79
:104AB0008146049800F134044FF40072002120462E
:104AC000FEF7CBF80B2220212046FEF7C6F82E2059
:104AD00020701020E072A675300AE075310C217646
:104AE000300E607600E05FE039462046FEF75CFD60
:104AF0002022214604F12000FEF7A2F82E2084F89F
:104B00002100DDF818A004980078032805D1049846
:104B1000806A504501D14FF0000A514604F120004F
:104B2000FEF742FD00E01FE0049890F8028017E0D5
:104B30000498C0F8309009F1010901200499087126
:104B40000498FEF7ACF9054605B10CE04FF400728D
:104B500000212046FEF781F8A8F1010000F0FF08CF
:104B6000B8F1000FE4D100BF1DB904A8FEF789FD1C
:104B7000054625B139460498FEF753FB14E0099C1D
:104B80001020E072A675300AE075310C2176300EE7
:104B9000607639462046FEF707FD0120049908712A
:104BA0000498FEF7BEF9054628460CB0BDE8F0872C
:104BB000F7B58AB00F461446012203A90AA8FEF7EA
:104BC000F1FE0646EEB9CDF824D003A80A99FEF707
:104BD0005BFE064600BFA6B9089D0DB9062610E08B
:104BE00004F0270407EA0400E97AE243D2B2114054
:104BF0000843E8720120039908710398FEF791F9C0
:104C0000064630460DB0F0BD73B58AB00D460122A0
:104C100003A90AA8FEF7C6FE0646EEB9CDF824D0D1
:104C200003A80A99FEF730FE064600BFA6B9089C05
:104C30000CB9062610E0E888A075E8880012E07537
:104C4000A8882076A8880012607601200399087150
:104C50000398FEF766F9064630460CB070BD2DE9A4
:104C6000F34198B00F46012211A918A8FEF79AFE49
:104C70000446F4BB11980A9001A8179011A818993E
:104C8000FEF702FE044600BF24B9022111A8FEF778
:104C90000BF804466CBB169808B904246AE0169811
:104CA00000F10B01152204A8FDF7CAFF1C2211A96F
:104CB0000AA8FDF7C5FF39460AA8FEF7E5FD044638
:104CC00004B90824042C55D10AA8FEF7DAFC0446DE
:104CD0007CB90F9D13220DF1120105F10D00FDF7B6
:104CE000AFFF9DF8100040F02000E87201201199FC
:104CF00000E03FE008710C991398884230D0E87AC0
:104D000010F0100F2CD029461198FEF73DFC80467C
:104D100041461198FEF769F906460EB902241FE0D4
:104D200031461198FEF7E4F80446119800F1540555
:104D3000B4B968782E2813D111980078032806D1C9
:104D400011990C98896A884201D1002000E00C98E2
:104D5000064631462846FEF727FC012011990871C6
:104D600044B911A8FEF7AAFC04461CB91198FEF735
:104D7000D8F8044620461AB0BDE8F0812DE9F74F77
:104D80008EB092460E98012803DB0B2011B0BDE8CF
:104D9000F08F0F98012801DD1320F7E7AAF1010039
:104DA00010EA0A0F01D01320F0E7FF490E9851F8DE
:104DB00020B0BBF1000F01D10C20E7E700208BF8F9
:104DC00000000E980B9000200A900B98FDF7A6FEAD
:104DD0000090009810F0010F01D00320D6E7009852
:104DE00010F0040F01D00A20D0E700BF03AA012170
:104DF0000B98FDF7F0FE10B90398802801D201202E
:104E0000C4E70F9808B1002000E03F2081460398D6
:104E1000A0EB09000390BAF1000F13D14FF4FA612F
:104E20000398B0FBF1F009904FF0000801E008F1A1
:104E30000108DE4830F8181009988142F7D8DC489C
:104E400030F818A04FEA5A2ABAF1000F01D14FF0FA
:104E5000010ABAF1800F01D94FF0800A0398B0FB24
:104E6000FAF7012540F6F670874200D302254FF687
:104E7000F670874200D30325032D0AD1082000EBEA
:104E8000870000F2FF10460A2020029000200190C7
:104E900011E0012D05D107EB4700401C4008C01C64
:104EA00001E07800001D064606F2FF10460A0120C8
:104EB00002902020019002984844069006983044C1
:104EC0000590019905980844049004985044A0EB7B
:104ED00009000399884201D90E2057E708AA032147
:104EE0000B98FDF778FE28B9089818B10898B0F526
:104EF000004F01D901200890089904980844401EE9
:104F0000491E8843089008990498081A0890032DB0
:104F100008D1089902980844029008990698084414
:104F2000069001E008980644DDE90201081A811B99
:104F30000198081AB0FBFAF7022D03D140F6F6707B
:104F4000874205D3032D05D14FF6F670874201D273
:104F50000E201BE7012D02D0022D0DD102E0012011
:104F60000C900CE00398B0F5803F01D2042000E0E3
:104F70000620C0B20C9002E00C200C9000BF00BFD5
:104F800000BF0F9810B1F0200D9044E04FF4007274
:104F900000210BF13400FDF760FE0BF5F9740120E0
:104FA0006070A0700020E0700C982071FE2060718D
:104FB000039848443F21B0FBF1F0FF21B0FBF1F032
:104FC00008903F21089841EA9000A0710898E0718C
:104FD0003F20207200216172A172E1720398207358
:104FE0000398000A60730398010CA1730398000EE4
:104FF000E07355218BF83212AA218BF8331201236A
:1050000000220BF134010B98FDF7BBFD08B1012024
:10501000BCE6F8200D900BF134044FF4007200212F
:105020002046FDF71AFE0B2262A12046FDF708FE7E
:105030004FF4007884F80B804FEA2820207384F81E
:105040000DA00298A0730298000AE073012020745A
:10505000032D01D1002001E04FF40070804684F858
:1050600011804FEA1820A0740398B0F5803F05D254
:105070000398E0740398000A207510E0039884F800
:1050800020000398C0F30720212108550398C0F39E
:105090000741222001550398000E232108550D9841
:1050A00060753F20207600216176FF20A076E176B2
:1050B00084F81C904FEA192060774FEA1941A177D4
:1050C0004FEA1960E077FDF784FD0890032D3ED18B
:1050D000089884F843000898C0F307204421085535
:1050E0000898C0F30741452001550898000E462155
:1050F000085584F82460C6F3072025210855C6F317
:10510000074126200155300E27210855022084F83A
:105110002C0000212D2001552E2001552F20015556
:10512000012084F8300031200155062084F8320037
:1051300033200155802084F84000292084F8420063
:1051400013221FA104F14700FDF77AFD1FE0089824
:1051500084F827000898C0F30720282108550898EC
:10516000C0F30741292001550898000E2A2108554F
:10517000A675300AE075802084F82400292084F880
:105180002600132213A104F12B00FDF759FD552031
:1051900084F8FE01AA2140F2FF10015501234A467E
:1051A00021460B9820E000004C010020F4930008F9
:1051B0000A940008EBFE904D53444F53352E3000B7
:1051C0004E4F204E414D4520202020464154333241
:1051D000202020004E4F204E414D452020202046CB
:1051E0004154202020202000FDF7CBFC08B10120F5
:1051F000CCE5032D06D1012309F1060221460B98C7
:10520000FDF7BFFC069807904FF0000861E04FF4EF
:10521000007200212046FDF720FD0D980890032D17
:1052200014D0012D01D1FF4801E06FF0FF00089973
:1052300008430890089820700898000A6070089841
:10524000000CA0700898000EE07019E0089860F05B
:10525000FF000890089820700898000A607008986D
:10526000000CA0700898000EE070FF202071FF2154
:105270006171A171E17120726172A1720F21E172FD
:105280000798411C02460123079121460B98FDF720
:1052900078FC08B1012079E54FF400720021204626
:1052A000FDF7DBFC012008900EE00798411C024648
:1052B0000123079121460B98FDF763FC08B10120FB
:1052C00064E50898401C08900898B042EDD308F1B6
:1052D0000108B8F1000F9AD0032D01D1504600E02B
:1052E0000198804600BF0798411C024601230791A0
:1052F00021460B98FDF745FC08B1012046E5A8F1D1
:1053000001005FEA0008EED1032D46D15220207043
:1053100060706120A0704120E070722084F8E40188
:10532000722140F2E51001554121401C01556121D7
:10533000401C0155781E84F8E801C0F3072040F2B4
:10534000E9110855781EC0F307414FF4F570015577
:10535000781E000E40F2EB110855022084F8EC0193
:10536000002140F2ED100155401C0155401C015533
:10537000552084F8FE01AA2140F2FF1001550123B7
:1053800009F1010221460B98FDF7FBFB012309F10E
:10539000070221460B98FDF7F4FB002211460B98FB
:1053A000FDF719FC08B1012000E00020C0B2EDE4D7
:1053B0002DE9FC4707468846914600243E4611E009
:1053C0006B46012201A94846FEF7C2FD009801285C
:1053D00000D00BE09DF8045006F8015B641C0A2D18
:1053E00000D103E0A8F10100A042E9DC00BF0020E9
:1053F000307014B13846BDE8FC870020FBE77CB56F
:1054000004460D468DF80040012601AB3246694640
:105410002846FEF791FE0198B04200D17CBD4FF0C6
:10542000FF30FBE770B504460E46002509E0207802
:105430003146FFF7E4FF401C01D1401E70BD641CE3
:105440006D1C20780028F2D12846F7E70FB42DE92B
:10545000F04F89B014A808900020824600903DE1EA
:10546000139810F8014B139004B93BE1252C0AD096
:1054700020461299FFF7C3FF82461AF1010001D0BE
:105480004FF0010A27E1002007468346139810F8E1
:10549000014B1390302C05D10127139810F8014BC4
:1054A000139006E02D2C04D10227139810F8014B1D
:1054B000139009E00BEB8B0004EB4000A0F1300BE4
:1054C000139810F8014B1390302C01DB392CF1DDCF
:1054D0006C2C01D04C2C05D147F00407139810F820
:1054E000014B139004B9FDE02546612D04DB7A2DB4
:1054F00002DCA5F12000C5B24F2D51D006DC422DB3
:105500004BD0432D40D0442D54D14CE0532D04D0EA
:10551000552D49D0582D4DD149E00898006801908B
:105520000898001D08904FF0000901E009F10109F9
:10553000019810F809000028F8D1002617F0020F92
:105540000BD105E020201299FFF759FF824606444F
:10555000484609F101095845F4D312990198FFF71B
:1055600061FF8246064405E020201299FFF747FFBD
:1055700082460644484609F101095845F4D31AF118
:10558000010000D0B246A6E0089904C9D0B2089143
:105590001299FFF734FF82469DE0022007900FE04A
:1055A000082007900CE000BF0A20079008E01020B8
:1055B000079005E020461299FFF721FF82468AE016
:1055C00000BF17F0040F05D0089800680899091D5E
:1055D00008910CE0442D05D1089800680899091D30
:1055E000089104E0089800680899091D0891069040
:1055F000442D08D1069810F0004F04D00698404280
:10560000069047F008074FF0000800BFDDE90601EB
:10561000B0FBF1F201FB1200C5B2DDE90601B0FBFF
:10562000F1F001E000FFFF000690092D06DD782C67
:1056300001D1272000E007202844C5B205F1300041
:10564000C2B2404608F1010802A90A54069810B1F6
:10565000B8F1100FDAD317F0080F05D02D2240460D
:1056600008F1010802A90A54C14617F0010F01D040
:10567000302000E02020C5B2002605E0284612991F
:10568000FFF7BDFE8246064417F0020F04D14846DC
:1056900009F101095845F1D300BFA8F1010188467D
:1056A00002AA505C1299FFF7AAFE82460644B8F19E
:1056B000000FF2D105E020201299FFF7A0FE8246EC
:1056C0000644484609F101095845F4D31AF101008E
:1056D00000D0B24600BF0098504400901AF101007B
:1056E0007FF4BEAE00BF1AF1010005D1504609B0EB
:1056F000BDE8F00F5DF814FB0098F8E714488069E6
:1057000040F00400124988611248006820F00F0040
:105710001149C1F804080846D0F8040840F0030015
:105720000C4908604FF001000C49086070470020E8
:105730000A4908607047012008490860704710B5A1
:10574000FFF7F5FF0A20FBF748F9FFF7F4FF10BD5C
:10575000001002400408014000000140A001214265
:10576000AD48806940F01800AB498861AB480068DB
:1057700020F00F00AA49C1F8000C0846D0F8000C30
:1057800040F00300C1F8000C0846D0F8000C20F0EF
:10579000F000C1F8000C0846D0F8000C40F03000D2
:1057A000C1F8000C9F48006820F470209D490860F3
:1057B0000846006840F4403008600846006820F45D
:1057C000700008600846006840F4401008607047A8
:1057D00008210122944B1A604FF00002934BC3F84A
:1057E000802115E010F0800F03D00122904B1A6049
:1057F00002E000228E4B1A6001228E4B1A604FF09D
:1058000000028A4BC3F880214FEA40624FEA1260DF
:105810000A00A1F10103D9B2E4D1704708210022A6
:10582000814B1A60814BC3F8802115E010F0800F86
:1058300003D001227E4B1A6002E000227C4B1A60EA
:1058400001227C4B1A604FF00002784BC3F8802194
:105850004FEA40624FEA12600A00A1F10103D9B297
:10586000E4D1704730B504460D4605F1B001C8B229
:10587000FFF7D4FF210941F01000FFF7CFFF04F03C
:105880000F00FFF7CBFF30BD70B50646002415E0D2
:1058900004F1B001C8B2FFF7C1FF0120FFF7BEFF5E
:1058A0001020FFF7BBFF002504E03046FFF790FF14
:1058B000681CC5B2802DF8DB601CC4B2082CE7DB85
:1058C00070BD30B5002415E004F1B001C8B2FFF797
:1058D000A5FF0120FFF7A2FF1020FFF79FFF002583
:1058E00004E00020FFF774FF681CC5B2802DF8DBD0
:1058F000601CC4B2082CE7DB30BD10B5FFF730FFE9
:1059000001204C4908604FF000004B49C1F890015C
:105910004FF00A00FBF761F80120484908604FF09A
:10592000AE00FFF77BFF0020FFF778FF1020FFF7A6
:1059300075FF4020FFF772FF8120FFF76FFFCF2038
:10594000FFF76CFFA120FFF769FFC820FFF766FF94
:10595000A620FFF763FFA820FFF760FF3F20FFF7B7
:105960005DFFD320FFF75AFF0020FFF757FFD52038
:10597000FFF754FF8020FFF751FFD920FFF74EFFBC
:10598000F120FFF74BFFDA20FFF748FF1220FFF767
:1059900045FFDB20FFF742FF4020FFF73FFF2020BD
:1059A000FFF73CFF0220FFF739FF8D20FFF736FF9E
:1059B0001420FFF733FFA420FFF730FFA620FFF7E6
:1059C0002DFFAF20FFF72AFF0020FFF75DFF00212A
:1059D0000846FFF747FF10BD70B5064600240025B6
:1059E00000BF15E004F1B001C8B2FFF717FF0020B7
:1059F000FFF714FF1020FFF711FF002505E006EB6D
:105A0000C501085DFFF7E4FE6D1C802DF7DB641C0B
:105A1000082CE7DB70BD000000100240000C0140C4
:105A20000000014000100140940122420080214208
:105A30008481214280812142000022429001224241
:105A40008C480068C0B270478B480068C0B270478D
:105A50008A480068C0B2704789480068C0B2704781
:105A600088480068C0B2704787480068C0B2704775
:105A700086480068C0B2704785480068C0B2704769
:105A800084480068C0B2704710B58348806940F010
:105A90000100814988618148006840F480707F4935
:105AA00008607F48008820F001007E49A1F8300C92
:105AB0007A48006820F48070784908604FF001004F
:105AC000FAF7DBFE7448806940F01C007249886177
:105AD0007548006820F47040734908600846006803
